{
  "contractName": "Wallet",
  "abi": [
    {
      "inputs": [
        {
          "internalType": "address[]",
          "name": "_approvers",
          "type": "address[]"
        },
        {
          "internalType": "uint256",
          "name": "_quorum",
          "type": "uint256"
        }
      ],
      "stateMutability": "nonpayable",
      "type": "constructor"
    },
    {
      "inputs": [
        {
          "internalType": "address",
          "name": "",
          "type": "address"
        },
        {
          "internalType": "uint256",
          "name": "",
          "type": "uint256"
        }
      ],
      "name": "approvals",
      "outputs": [
        {
          "internalType": "bool",
          "name": "",
          "type": "bool"
        }
      ],
      "stateMutability": "view",
      "type": "function",
      "constant": true
    },
    {
      "inputs": [
        {
          "internalType": "uint256",
          "name": "",
          "type": "uint256"
        }
      ],
      "name": "approvers",
      "outputs": [
        {
          "internalType": "address",
          "name": "",
          "type": "address"
        }
      ],
      "stateMutability": "view",
      "type": "function",
      "constant": true
    },
    {
      "inputs": [],
      "name": "quorum",
      "outputs": [
        {
          "internalType": "uint256",
          "name": "",
          "type": "uint256"
        }
      ],
      "stateMutability": "view",
      "type": "function",
      "constant": true
    },
    {
      "inputs": [
        {
          "internalType": "uint256",
          "name": "",
          "type": "uint256"
        }
      ],
      "name": "transfers",
      "outputs": [
        {
          "internalType": "uint256",
          "name": "id",
          "type": "uint256"
        },
        {
          "internalType": "uint256",
          "name": "amount",
          "type": "uint256"
        },
        {
          "internalType": "address payable",
          "name": "to",
          "type": "address"
        },
        {
          "internalType": "uint256",
          "name": "approvals",
          "type": "uint256"
        },
        {
          "internalType": "bool",
          "name": "sent",
          "type": "bool"
        }
      ],
      "stateMutability": "view",
      "type": "function",
      "constant": true
    },
    {
      "stateMutability": "payable",
      "type": "receive",
      "payable": true
    },
    {
      "inputs": [],
      "name": "getApprovers",
      "outputs": [
        {
          "internalType": "address[]",
          "name": "",
          "type": "address[]"
        }
      ],
      "stateMutability": "view",
      "type": "function",
      "constant": true
    },
    {
      "inputs": [],
      "name": "getTransfers",
      "outputs": [
        {
          "components": [
            {
              "internalType": "uint256",
              "name": "id",
              "type": "uint256"
            },
            {
              "internalType": "uint256",
              "name": "amount",
              "type": "uint256"
            },
            {
              "internalType": "address payable",
              "name": "to",
              "type": "address"
            },
            {
              "internalType": "uint256",
              "name": "approvals",
              "type": "uint256"
            },
            {
              "internalType": "bool",
              "name": "sent",
              "type": "bool"
            }
          ],
          "internalType": "struct Wallet.Transfer[]",
          "name": "",
          "type": "tuple[]"
        }
      ],
      "stateMutability": "view",
      "type": "function",
      "constant": true
    },
    {
      "inputs": [
        {
          "internalType": "uint256",
          "name": "amount",
          "type": "uint256"
        },
        {
          "internalType": "address payable",
          "name": "to",
          "type": "address"
        }
      ],
      "name": "createTransfer",
      "outputs": [],
      "stateMutability": "nonpayable",
      "type": "function"
    },
    {
      "inputs": [
        {
          "internalType": "uint256",
          "name": "id",
          "type": "uint256"
        }
      ],
      "name": "approveTrasnfer",
      "outputs": [],
      "stateMutability": "nonpayable",
      "type": "function"
    }
  ],
  "bytecode": "0x60806040523480156200001157600080fd5b50604051620014bf380380620014bf833981810160405281019062000037919062000336565b81600090805190602001906200004f9291906200005f565b508060018190555050506200039c565b828054828255906000526020600020908101928215620000db579160200282015b82811115620000da5782518260006101000a81548173ffffffffffffffffffffffffffffffffffffffff021916908373ffffffffffffffffffffffffffffffffffffffff1602179055509160200191906001019062000080565b5b509050620000ea9190620000ee565b5090565b5b8082111562000109576000816000905550600101620000ef565b5090565b6000604051905090565b600080fd5b600080fd5b600080fd5b6000601f19601f8301169050919050565b7f4e487b7100000000000000000000000000000000000000000000000000000000600052604160045260246000fd5b620001718262000126565b810181811067ffffffffffffffff8211171562000193576200019262000137565b5b80604052505050565b6000620001a86200010d565b9050620001b6828262000166565b919050565b600067ffffffffffffffff821115620001d957620001d862000137565b5b602082029050602081019050919050565b600080fd5b600073ffffffffffffffffffffffffffffffffffffffff82169050919050565b60006200021c82620001ef565b9050919050565b6200022e816200020f565b81146200023a57600080fd5b50565b6000815190506200024e8162000223565b92915050565b60006200026b6200026584620001bb565b6200019c565b90508083825260208201905060208402830185811115620002915762000290620001ea565b5b835b81811015620002be5780620002a988826200023d565b84526020840193505060208101905062000293565b5050509392505050565b600082601f830112620002e057620002df62000121565b5b8151620002f284826020860162000254565b91505092915050565b6000819050919050565b6200031081620002fb565b81146200031c57600080fd5b50565b600081519050620003308162000305565b92915050565b6000806040838503121562000350576200034f62000117565b5b600083015167ffffffffffffffff8111156200037157620003706200011c565b5b6200037f85828601620002c8565b925050602062000392858286016200031f565b9150509250929050565b61111380620003ac6000396000f3fe60806040526004361061007f5760003560e01c80636cb3e8ef1161004e5780636cb3e8ef146101335780639377d7111461015e578063d3650fb81461019f578063ffabc673146101dc57610086565b80630564732c1461008b5780631703a018146100b45780632f65142c146100df5780634c12fa471461010a57610086565b3661008657005b600080fd5b34801561009757600080fd5b506100b260048036038101906100ad9190610a67565b610219565b005b3480156100c057600080fd5b506100c96105ea565b6040516100d69190610aa3565b60405180910390f35b3480156100eb57600080fd5b506100f46105f0565b6040516101019190610c40565b60405180910390f35b34801561011657600080fd5b50610131600480360381019061012c9190610c8e565b6106de565b005b34801561013f57600080fd5b506101486108bd565b6040516101559190610d9e565b60405180910390f35b34801561016a57600080fd5b5061018560048036038101906101809190610a67565b61094b565b604051610196959493929190610dde565b60405180910390f35b3480156101ab57600080fd5b506101c660048036038101906101c19190610a67565b6109be565b6040516101d39190610e40565b60405180910390f35b3480156101e857600080fd5b5061020360048036038101906101fe9190610e87565b6109fd565b6040516102109190610ec7565b60405180910390f35b6000805b6000805490508110156102b3573373ffffffffffffffffffffffffffffffffffffffff166000828154811061025557610254610ee2565b5b9060005260206000200160009054906101000a900473ffffffffffffffffffffffffffffffffffffffff1673ffffffffffffffffffffffffffffffffffffffff16036102a057600191505b80806102ab90610f40565b91505061021d565b5060011515811515146102fb576040517f08c379a00000000000000000000000000000000000000000000000000000000081526004016102f290610fe5565b60405180910390fd5b600015156002838154811061031357610312610ee2565b5b906000526020600020906005020160040160009054906101000a900460ff16151514610374576040517f08c379a000000000000000000000000000000000000000000000000000000000815260040161036b90611051565b60405180910390fd5b60001515600360003373ffffffffffffffffffffffffffffffffffffffff1673ffffffffffffffffffffffffffffffffffffffff168152602001908152602001600020600084815260200190815260200160002060009054906101000a900460ff16151514610418576040517f08c379a000000000000000000000000000000000000000000000000000000000815260040161040f906110bd565b60405180910390fd5b6001600360003373ffffffffffffffffffffffffffffffffffffffff1673ffffffffffffffffffffffffffffffffffffffff168152602001908152602001600020600084815260200190815260200160002060006101000a81548160ff0219169083151502179055506002828154811061049557610494610ee2565b5b906000526020600020906005020160030160008154809291906104b790610f40565b9190505550600154600283815481106104d3576104d2610ee2565b5b906000526020600020906005020160030154106105e657600160028381548110610500576104ff610ee2565b5b906000526020600020906005020160040160006101000a81548160ff02191690831515021790555060006002838154811061053e5761053d610ee2565b5b906000526020600020906005020160020160009054906101000a900473ffffffffffffffffffffffffffffffffffffffff16905060006002848154811061058857610587610ee2565b5b90600052602060002090600502016001015490508173ffffffffffffffffffffffffffffffffffffffff166108fc829081150290604051600060405180830381858888f193505050501580156105e2573d6000803e3d6000fd5b5050505b5050565b60015481565b60606002805480602002602001604051908101604052809291908181526020016000905b828210156106d557838290600052602060002090600502016040518060a001604052908160008201548152602001600182015481526020016002820160009054906101000a900473ffffffffffffffffffffffffffffffffffffffff1673ffffffffffffffffffffffffffffffffffffffff1673ffffffffffffffffffffffffffffffffffffffff168152602001600382015481526020016004820160009054906101000a900460ff16151515158152505081526020019060010190610614565b50505050905090565b6000805b600080549050811015610778573373ffffffffffffffffffffffffffffffffffffffff166000828154811061071a57610719610ee2565b5b9060005260206000200160009054906101000a900473ffffffffffffffffffffffffffffffffffffffff1673ffffffffffffffffffffffffffffffffffffffff160361076557600191505b808061077090610f40565b9150506106e2565b5060011515811515146107c0576040517f08c379a00000000000000000000000000000000000000000000000000000000081526004016107b790610fe5565b60405180910390fd5b60026040518060a0016040528060028054905081526020018581526020018473ffffffffffffffffffffffffffffffffffffffff16815260200160008152602001600015158152509080600181540180825580915050600190039060005260206000209060050201600090919091909150600082015181600001556020820151816001015560408201518160020160006101000a81548173ffffffffffffffffffffffffffffffffffffffff021916908373ffffffffffffffffffffffffffffffffffffffff1602179055506060820151816003015560808201518160040160006101000a81548160ff0219169083151502179055505050505050565b6060600080548060200260200160405190810160405280929190818152602001828054801561094157602002820191906000526020600020905b8160009054906101000a900473ffffffffffffffffffffffffffffffffffffffff1673ffffffffffffffffffffffffffffffffffffffff16815260200190600101908083116108f7575b5050505050905090565b6002818154811061095b57600080fd5b90600052602060002090600502016000915090508060000154908060010154908060020160009054906101000a900473ffffffffffffffffffffffffffffffffffffffff16908060030154908060040160009054906101000a900460ff16905085565b600081815481106109ce57600080fd5b906000526020600020016000915054906101000a900473ffffffffffffffffffffffffffffffffffffffff1681565b60036020528160005260406000206020528060005260406000206000915091509054906101000a900460ff1681565b600080fd5b6000819050919050565b610a4481610a31565b8114610a4f57600080fd5b50565b600081359050610a6181610a3b565b92915050565b600060208284031215610a7d57610a7c610a2c565b5b6000610a8b84828501610a52565b91505092915050565b610a9d81610a31565b82525050565b6000602082019050610ab86000830184610a94565b92915050565b600081519050919050565b600082825260208201905092915050565b6000819050602082019050919050565b610af381610a31565b82525050565b600073ffffffffffffffffffffffffffffffffffffffff82169050919050565b6000610b2482610af9565b9050919050565b610b3481610b19565b82525050565b60008115159050919050565b610b4f81610b3a565b82525050565b60a082016000820151610b6b6000850182610aea565b506020820151610b7e6020850182610aea565b506040820151610b916040850182610b2b565b506060820151610ba46060850182610aea565b506080820151610bb76080850182610b46565b50505050565b6000610bc98383610b55565b60a08301905092915050565b6000602082019050919050565b6000610bed82610abe565b610bf78185610ac9565b9350610c0283610ada565b8060005b83811015610c33578151610c1a8882610bbd565b9750610c2583610bd5565b925050600181019050610c06565b5085935050505092915050565b60006020820190508181036000830152610c5a8184610be2565b905092915050565b610c6b81610b19565b8114610c7657600080fd5b50565b600081359050610c8881610c62565b92915050565b60008060408385031215610ca557610ca4610a2c565b5b6000610cb385828601610a52565b9250506020610cc485828601610c79565b9150509250929050565b600081519050919050565b600082825260208201905092915050565b6000819050602082019050919050565b6000610d0582610af9565b9050919050565b610d1581610cfa565b82525050565b6000610d278383610d0c565b60208301905092915050565b6000602082019050919050565b6000610d4b82610cce565b610d558185610cd9565b9350610d6083610cea565b8060005b83811015610d91578151610d788882610d1b565b9750610d8383610d33565b925050600181019050610d64565b5085935050505092915050565b60006020820190508181036000830152610db88184610d40565b905092915050565b610dc981610b19565b82525050565b610dd881610b3a565b82525050565b600060a082019050610df36000830188610a94565b610e006020830187610a94565b610e0d6040830186610dc0565b610e1a6060830185610a94565b610e276080830184610dcf565b9695505050505050565b610e3a81610cfa565b82525050565b6000602082019050610e556000830184610e31565b92915050565b610e6481610cfa565b8114610e6f57600080fd5b50565b600081359050610e8181610e5b565b92915050565b60008060408385031215610e9e57610e9d610a2c565b5b6000610eac85828601610e72565b9250506020610ebd85828601610a52565b9150509250929050565b6000602082019050610edc6000830184610dcf565b92915050565b7f4e487b7100000000000000000000000000000000000000000000000000000000600052603260045260246000fd5b7f4e487b7100000000000000000000000000000000000000000000000000000000600052601160045260246000fd5b6000610f4b82610a31565b91507fffffffffffffffffffffffffffffffffffffffffffffffffffffffffffffffff8203610f7d57610f7c610f11565b5b600182019050919050565b600082825260208201905092915050565b7f4f6e6c7920617070726f7665727320616c6c6f77656400000000000000000000600082015250565b6000610fcf601683610f88565b9150610fda82610f99565b602082019050919050565b60006020820190508181036000830152610ffe81610fc2565b9050919050565b7f5472616e736665722068617320616c7265616479206265656e2073656e740000600082015250565b600061103b601e83610f88565b915061104682611005565b602082019050919050565b6000602082019050818103600083015261106a8161102e565b9050919050565b7f43616e6e6f7420617070726f7665207472616e73666572207477696365000000600082015250565b60006110a7601d83610f88565b91506110b282611071565b602082019050919050565b600060208201905081810360008301526110d68161109a565b905091905056fea2646970667358221220facb33d3d88affabd4aadc03a73577d97c5c84525a59ccedd7f77aea1546916364736f6c63430008110033",
  "immutableReferences": {},
  "source": "// SPDX-License-Identifier: MIT\npragma solidity >= 0.8.7;\n// pragma experimental ABIEncoderV2\n// pragma abicoder v2;\n\ncontract Wallet {\n    address[] public approvers;\n    uint public quorum;\n    struct Transfer {\n        uint id;\n        uint amount;\n        address payable to;\n        uint approvals;\n        bool sent;\n    }\n    Transfer[] public transfers;\n    mapping(address => mapping(uint => bool)) public approvals;\n\n    constructor(address[] memory _approvers, uint _quorum) {\n        approvers = _approvers;\n        quorum = _quorum;\n    }\n\n    function getApprovers() external view returns(address[] memory){\n        return approvers;\n    }\n\n    function getTransfers() external view returns (Transfer[] memory){\n        return transfers;\n    }\n\n    function createTransfer(uint amount, address payable to) external onlyApprover() {\n        transfers.push(Transfer(\n            transfers.length,\n            amount,\n            to,\n            0,\n            false\n        ));\n    }\n\n    function approveTrasnfer(uint id) external onlyApprover() {\n        require(transfers[id].sent == false, 'Transfer has already been sent');\n        require(approvals[msg.sender][id] == false, 'Cannot approve transfer twice');\n\n        approvals[msg.sender][id] = true;\n        transfers[id].approvals++;\n\n        if(transfers[id].approvals >= quorum){\n            transfers[id].sent = true;\n\n            address payable to = transfers[id].to;\n            uint amount = transfers[id].amount;\n\n            to.transfer(amount);\n        }\n    }\n\n    receive() external payable {}\n\n    modifier onlyApprover() {\n        bool allowed = false;\n        for(uint i = 0; i < approvers.length; i++){\n            if(approvers[i] == msg.sender){\n                allowed = true;\n            }\n        }\n        require(allowed == true, 'Only approvers allowed');\n        _;\n    }\n}",
  "sourcePath": "/Users/mobolajiolawale/Documents/GitHub/web3/project 1/multisig_wallet/contracts/Wallet.sol",
  "compiler": {
    "name": "solc",
    "version": "0.8.17+commit.8df45f5f.Emscripten.clang"
  },
  "schemaVersion": "3.4.10",
  "updatedAt": "2022-09-28T13:01:40.292Z",
  "networkType": "ethereum",
  "devdoc": {
    "kind": "dev",
    "methods": {},
    "version": 1
  },
  "userdoc": {
    "kind": "user",
    "methods": {},
    "version": 1
  }
}